:100000000C9466000C947F000C947F000C947F008D
:100010000C947F000C947F000C947F000C947F0064
:100020000C947F000C947F000C947F000C947F0054
:100030000C947F000C947F000C947F000C947F0044
:100040000C947F000C947F000C947F000C947F0034
:100050000C947F000C947F000C947F000C947F0024
:100060000C947F000C947F000C947F000C947F0014
:100070000C947F000C947F000C947F000C947F0004
:100080000C947F000C947F000C947F000C947F00F4
:100090000C947F000C947F000C947F000C947F00E4
:1000A0000C947F000C947F000C947F000C947F00D4
:1000B0000C947F000C947F000C947F000C947F00C4
:1000C0000C947F000C947F000C947F0011241FBEC1
:1000D000CFEFD1E2DEBFCDBF00E00CBF12E0A0E069
:1000E000B2E0E6E2F1E000E00BBF02C007900D9243
:1000F000A030B107D9F70E9481000C9491000C94B4
:1001000000008FE787B98EE788B980E78AB981E177
:100110008BB990E88FE7489902C098B9FCCF88B9AD
:06012000FACFF894FFCFB6
:00000001FF
